:020000041000EA
:1020000000F80F082D0406100D000000A1040610B2
:10201000A1040610A1040610A1040610000000008F
:10202000000000000000000000000000613C0710FC
:102030009D04061000000000013D0710093C071038
:102040009D0406109D0406109D0406109D040610B4
:102050009D0406109D0406109D0406109D040610A4
:102060009D0406109D0406109D0406109D04061094
:102070009D0406109D0406109D0406109D04061084
:1022E00010B5054C237833B9044B13B10448AFF350
:1022F00000800123237010BDB431000800000000ED
:102300007C88121008B5034B1BB103490348AFF397
:10231000008008BD00000000B83100087C88121061
:1023200080B485B000AF7860074BFB60FB681A682B
:102330007B681A60FB687A681A60002318461437B5
:10234000BD465DF8047B7047E431000880B483B07B
:1023500000AF064B7B607B681B681A687B681A605D
:1023600000BF0C37BD465DF8047B7047E4310008C0
:1023700080B485B000AF78603960094BFB60FB68C2
:102380001A687B681A607B683A685A60FB687A68EA
:102390001A6000BF1437BD465DF8047B704700BF6C
:1023A000E831000880B584B000AF0346FB710A4BEA
:1023B000FB60FB681B68BB60FB681B681A68FB68F6
:1023C0001A60FB79002B03D0BB685B68B86898473C
:1023D00000BF1037BD4680BDE831000880B584B02D
:1023E00000AF7860094BFB6002E00120FFF7DAFFE5
:1023F000FB681B68002B04D0FB681B687A689A4254
:10240000F3D800BF1037BD4680BD00BFE8310008DB
:10241000C460056146618761C0F81C80C0F82090E7
:10242000C0F824A0C0F828B0C0F82CD080ED0C8BE8
:1024300080ED0E9B80ED10ABC0F808E0FFF770BF99
:10244000124D6C6908B50CB95DF0F8FD606020466E
:10245000FFF7C4FF23686B612046C46805694669BD
:102460008769D0F81C80D0F82090D0F824A0D0F84C
:1024700028B0D0F82CD090ED0C8B90ED0E9B90ED09
:1024800010ABD0F808E00120704700BFD031000841
:1024900080B584B000AF78600021786800F090FCCF
:1024A000F860FB68002B05D17B68002B02D07868B0
:1024B0001DF0A0FC114BD3F868237B6813440F4A2E
:1024C000C2F868330D4BD3F86C237B6813440B4A76
:1024D000C2F86C33094BD3F86C23084BD3F8703334
:1024E0009A4205D9054BD3F86C33044AC2F87033CD
:1024F000FB6818461037BD4680BD00BFD0310008CC
:1025000080B584B000AF78600021786800F058FC96
:10251000F860114BD3F868237B6813440E4AC2F865
:1025200068330D4BD3F86C237B6813440A4AC2F816
:102530006C33094BD3F86C23074BD3F870339A42B2
:1025400005D9054BD3F86C33034AC2F87033FB68E6
:1025500018461037BD4680BDD031000880B584B024
:1025600000AF78600121786800F02AFCF860FB6811
:10257000002B05D17B68002B02D078681DF03AFC57
:10258000114BD3F868237B6813440F4AC2F86833B1
:102590000D4BD3F86C237B6813440B4AC2F86C33A1
:1025A000094BD3F86C23084BD3F870339A4205D902
:1025B000054BD3F86C33044AC2F87033FB681846F5
:1025C0001037BD4680BD00BFD031000880B584B053
:1025D00000AF78607868FFF75BFFF860FB6818462B
:1025E0001037BD4680BD000080B586B000AFF860F2
:1025F000B9607A6001227968F86800F05FFD78615F
:102600007B69002B05D17B68002B02D078681DF018
:10261000F1FB7A68BB68D31A3B61114BD3F868238E
:102620003B6913440E4AC2F868330D4BD3F86C2350
:102630003B6913440A4AC2F86C33094BD3F86C2344
:10264000074BD3F870339A4205D9054BD3F86C3356
:10265000034AC2F870337B6918461837BD4680BDFF
:10266000D031000880B586B000AFF860B9607A60FC
:10267000FB70FB781A467968F86800F01FFD7861F6
:102680007B69002B02D17B68002B21D17A68BB6863
:10269000D31A3B61114BD3F868233B6913440F4AAB
:1026A000C2F868330D4BD3F86C233B6913440B4AD3
:1026B000C2F86C33094BD3F86C23084BD3F8703352
:1026C0009A4205D9054BD3F86C33044AC2F87033EB
:1026D0007B6918461837BD4680BD00BFD031000861
:1026E00080B582B000AF78603960786800F044FC53
:1026F000054BD3F86C233B68D31A034AC2F86C33FA
:1027000000BF0837BD4680BDD031000880B400AF9F
:1027100000BFBD465DF8047B704780B400AF00BFCA
:10272000BD465DF8047B704780B584B000AF78602B
:1027300039607B683A6802FB03F308331846FFF7F9
:10274000DFFEF860FB68002B01D1002317E0FFF7E4
:10275000DDFF0D4B9B6A002B03D00B4B9B6AFA6885
:102760001A60FB6800221A60074B9A6AFB685A607D
:10277000054AFB689362FFF7D0FFFB6808331846F1
:102780001037BD4680BD00BFD031000880B584B091
:1027900000AF78607B68002B26D07B68083BFB602D
:1027A000FFF7B4FFFB685B68002B04D0FB685B6835
:1027B000FA6812681A60FB681B68002B05D0FB687A
:1027C0001B68FA6852685A6003E0FB685B68084A55
:1027D0009362FFF7A2FFF86800F03CFC034619463D
:1027E000F868FFF77DFF00E000BF1037BD4680BDF1
:1027F000D031000880B400AF034BD3F868331846DB
:10280000BD465DF8047B7047D031000880B400AF4E
:10281000034BD3F86C331846BD465DF8047B704714
:10282000D031000880B400AF034BD3F870331846A2
:10283000BD465DF8047B7047D0310008DFF8C8C0A2
:102840002DE9F04100244FF0030EDCF87463002101
:1028500001314518AB0805F00302F35C5200134147
:1028600003F00303022BF3D0DCE9E02302EB0515B0
:10287000AB423CD3090102EB00108B0871B300EBB3
:10288000830103681A0726D1DCF880239A4222D8F4
:10289000DCF884539D421ED99B1A9E09DCF87473A0
:1028A000C3F3011217F80680520048FA02F505F04A
:1028B0000305012D4FEA13130DD10EFA02F23F2C3E
:1028C00042EA0802BA5597BF0CEB8402CCF8905349
:1028D000C2F89433013404308842D2D12CB1013C87
:1028E0000CEB8403D3F89403AFE7BDE8F081034B0E
:1028F000034A04484FF4EE71B7F064FE602C0C10EC
:10290000702F0C10B02C0C10D031000808B5034A01
:10291000034B044840F2A111B7F054FE802F0C1075
:10292000C02C0C10B02C0C1021F00F010A1A10B59D
:10293000013A1A4CD200A4FB0242194C520A4FEA47
:10294000820CC4E9DD020346C4F88413A1EB8211B2
:10295000013213440CF1070CC4F87C3303EBDC03A5
:102960009942C4F8801313D34FEADC0C624400216F
:10297000B8F0BCF9002301214FF0FF32C4E9E23383
:102980002381A4F89414C4F89C24C4F8983410BD8E
:10299000044B054A0548AA21B7F014FEF32C23FA8C
:1029A000D0310008F82C0C10982F0C10B02C0C1003
:1029B000024A138902331381704700BFD0310008E7
:1029C000024A1389023B1381704700BFD0310008CF
:1029D000024B1889003818BF01207047D031000819
:1029E000F8B51E4D2B8913F0010234D143F00103D9
:1029F0002B81C5F89023C5F8982405F1080405F546
:102A00002F76032754F8040F030718D1D5F8803325
:102A1000984214D3D5F88423904210D2C01A810969
:102A2000D5F874C3C0F301131CF801E05B004EFA43
:102A300003F202F00302012A4FEA101002D0A6426C
:102A4000E0D1F8BD07FA03F343EA0E030CF80130B6
:102A5000FFF7F4FEF3E7FFF759FF00BFD03100089E
:102A6000A9B32DE9F0411A4E0F46051F00244FF07F
:102A7000030855F8043F1A0704F101041AD1D6F8E7
:102A80008023981AC0F3011C9A424FEA90114FEA32
:102A90004C0C4FEA10100DD8D6F884239A4209D96D
:102AA000D6F8742312F801E04EFA0CF303F0030396
:102AB000012B03D0A742DCD1BDE8F08108FA0CFC61
:102AC0004CEA0E0C02F801C0FFF7B8FEF2E77047BF
:102AD000D03100082DE9F0436F4ED6F8903383B023
:102AE000002B00F0C680D6F8781300258900C6F8C0
:102AF00090530B46A9B10024D6F87403A20804F041
:102B00000303825C5B0042FA03F303F00303032B2D
:102B100057D001348C420B46EED3D6F89023002ACE
:102B2000E5D1D6F88C239A4200F2A7804FEAD2086A
:102B30004FF000090127D6F87C3313F809404FEA1B
:102B4000C90524B937E0640805F1010533D0E3076E
:102B5000F9D5D6F87413AA0805F003038A5C5B0064
:102B600042FA03F303F00303012BECD1D6F88023E0
:102B70002B0102EB0510D35873B16A464FF4047170
:102B80001CF060FB009B3BB11DF0A0FADDE90001E9
:102B90001DF0D8F91DF0C0FAEB08D6F87C0305F05B
:102BA0000701C25C07FA01F122EA01026408C2547B
:102BB00005F10105CBD1C84509F1010310D09946B3
:102BC000B9E72046FFF73AFED6F8781301348900BA
:102BD000A1420B4690D8D6F89023002A87D1A0E7CF
:102BE000D6F88C83D6F87833B8EB830F4CD84FF0F7
:102BF000000EF146714603274FF0020C04E0012A53
:102C000028D0013141451BD8D6F874538C0801F007
:102C10000303285D5B0040FA03F202F00302022A7C
:102C200022D0032AEBD10CFA03F320EA03032B553D
:102C3000D6F88C838E46013141454FF00009E3D927
:102C40003389002223F00103C6E9E22E338103B069
:102C5000BDE8F08307FA03F320EA03032B554FF096
:102C60000109D6F88C83CCE7B9F1000FF2D18E467A
:102C7000C7E7D6F878339B0053E7084B084A094862
:102C800040F23E21B7F09EFC044B074A05484FF442
:102C90001C71B7F097FC00BFD03100084C2D0C1010
:102CA000582F0C10B02C0C10402F0C10084A08B5EF
:102CB000138913F0010108D143F001031381BDE82A
:102CC0000840C2F89013FFF705BFFFF71FFE00BFD3
:102CD000D0310008394BD3E9E0122DE9F047521A00
:102CE0000024D3E9DD61C0E90144C0E90344C0E93F
:102CF000054402604FEA810CA64627462546224637
:102D0000A1462146A04616F8093049000B4103F0C0
:102D10000303012B47D0022B41D0002B38D00132C6
:102D200094450ED04FEA920902F0030116F80930DB
:102D30004FEA410A43FA0AF313F0030301D0012BCF
:102D4000E1D1012D11D0022D02D141690131416142
:102D50008169A94238BF856194450FD0012B26D0E7
:102D60004FEA920902F00301CDE7016901310161E7
:102D70008169A94238BF85619445EFD1474500D9A3
:102D8000C76024014FEA0E13C0E90143BDE8F08794
:102D90000EF1010EC0F808E001371D46BFE701340F
:102DA00044600135BBE7013444601D46B7E7B845D0
:102DB00001D2C760B8460027D2E700BFD031000873
:102DC0000F302DE9F84306095AD06A4C2389002BAD
:102DD00056D1B4F89434002B0D460CBF4FF0010EC1
:102DE0004FF0000E50D1D4F88803D4F87873B8426D
:102DF00039D2D4F874C3411E614400221AE0013272
:102E0000964253D913F00C0F1ED10132964240F274
:102E1000A88013F0300F1CD10132964240F2A480FA
:102E200013F0C00F1AD10132964240F2A080013057
:102E3000B84218D211F8013F13F0030FDFD013F09E
:102E40000C0F4FF00002E0D013F0300F4FF00002F3
:102E5000E2D013F0C00F4FF00002E4D00130B842CE
:102E60004FF00002E6D3BEF1000F09D156F0B8FDD5
:102E7000D4F88803D4F87873B8424FF0010EB8D371
:102E800000231846BDE8F883D4F89824D4F89C347D
:102E90009A42A8D356F0A4FDD4F88803D4F87873E6
:102EA000B84238BF4FF0010EA3D3E9E78000811A82
:102EB000012A01F1010703D1431C9B08C4F88833A0
:102EC000D4F88C33834238BF03464FEA970EC4F8D8
:102ED0008C3307F003031CF80E904FEA43080123DC
:102EE000023103FA08F343EA090388420CF80E3072
:102EF00013D34FF002084FEA910CD4F874E301F0B9
:102F000003031EF80C905B0008FA03F3013143EA57
:102F1000090388420EF80C30EDD2D4F89834D4F876
:102F200080833344C4F8983408EB07131201184621
:102F30000021B7F0DBFEEA074FEA07160346A0D5EB
:102F40000022D4F87C0348F80620F9080122445CEA
:102F500007F0070702FA07F7274347541846BDE86A
:102F6000F88380000130A2E7800002309FE78000F4
:102F700003309CE7D0310008F8B5314D2C8924F09E
:102F80000103002B4DD100284BD0060751D1D5F8B5
:102F9000802382424DD8D5F88433834249D9821A9E
:102FA000D5F8743396091009995DC2F301135F00D7
:102FB000394101F00301012903D0032932D1E1078E
:102FC00030D5D209D5F87C7300F0070CB95C012428
:102FD00004FA0CF421EA0401B954D5F88823D5F891
:102FE0007443964238BFC5F88863A15D4FEA900CE0
:102FF0004FF0030E5B000EFA03F321EA030104F81D
:103000000C100130D5F874434FEA900C00F0030324
:1030100014F80C105A0041FA02F202F00302022ADC
:10302000E8D0F8BD074B084A084840F2B731B7F07E
:10303000C9FA074B044A054840F2B231B7F0C2FA68
:10304000D0310008A82D0C10382F0C10B02C0C100B
:10305000982D0C1010F00F021CD11749D1F88033B5
:10306000834218D810B4D1F8844384420ED9C31ACD
:10307000D1F874439909C3F30110615C4000014128
:1030800001F0030101294FEA131306D010465DF841
:10309000044B704700221046704701329918880887
:1030A00001F00301205C490040FA01F101F0030145
:1030B0000229F2D01201E9E7D03100082DE9F84FDA
:1030C00089460546002800F0E580002900F0D880F8
:1030D0007F4E3389002B40F0D88010F00F0C40F069
:1030E000E880D6F88013814200F2E380D6F884337A
:1030F000834240F2DE80411A8B09D6F87473FC5C7F
:10310000C1F301135B001C4104F00304012C4FEADE
:10311000111A40F0D580D6F878330AF1010E09F182
:103120000F08BEEB830F4FEA18184FEA830013D243
:103130004FEA9E030EF0030BFB5C4FEA4B0B43FA86
:103140000BF303F00303022B4BD02BB90CF1010C52
:103150000CEB0403434545D3A04577D047D3A444A3
:10316000C44577D30AEB080E0AEB040CE64525D9D3
:103170004FEA9C030CF00302F95C530041FA03F29E
:10318000920707EB9C0740F08D8002200EE0D6F8F6
:1031900074734FEA9C010CF00303795C5B0041FA05
:1031A00003F919F0030F07EB9C077BD100FA03F337
:1031B0000CF1010C0B43E6453B70E8D1D6F88C339B
:1031C000A8EB0402734538BF7346120105EB0410E7
:1031D000A9460021C6F88C33B7F088FD4846BDE803
:1031E000F88F01340EF1010E7045A1D1B4E70AEB5E
:1031F00008014FEA910901F0030317F809005B0089
:103200004FF0030EA4EB08080EFA03F320EA0303C1
:10321000B8F1010F07F8093001F1010110D00AEBF4
:10322000040C8808D6F8747301F003033A5C5B0061
:103230000EFA03F3013122EA030361453B54F0D156
:10324000D6F888334B4588BFC6F88893A9464846C8
:10325000BDE8F88F22B3D6F87C33C9090AF0070C11
:10326000595C41FA0CF1484601F00101FFF7A8FD55
:1032700081460028EBD022012946B7F00FFD2846F1
:10328000FFF77AFE4846BDE8F88F4FF00009484640
:10329000BDE8F88F01464846BDE8F84FFFF790BDFE
:1032A0009146D4E70B4B0C4A0C4840F26341B7F00F
:1032B00089F90B4B084A094840F21941B7F082F9E5
:1032C000084B054A054840F21D41B7F07BF900BFA5
:1032D000D0310008582E0C102C2F0C10B02C0C10D4
:1032E000982D0C10302E0C1010B58AB0044603A88F
:1032F000FFF7F0FCDDE90430039A0090074920460F
:1033000001F010FBDDE908310698079ACDE90010BD
:103310000349204601F006FB0AB010BD7C2E0C10BC
:10332000A02E0C102DE9F84FDFF85CB14A49DBF80C
:103330008023074601F0F6FADBF87823920077D075
:10334000DFF84881DFF848A1DFF8489100250EE05A
:10335000012E3DD02E224149384601F0E3FADBF838
:1033600078330135B5EB830F4FEA830260D215F055
:103370003F0610D005F003067600DBF87423AB0897
:10338000D35C43FA06F606F00306022E1ED0032E87
:10339000DED16D22DFE7DBF874132C46A00804F0C1
:1033A0000303085C5B0040FA03F39B0702D101347E
:1033B0009442F3D3621B7F2A2ED805F003067600D1
:1033C0002A014146384601F0ADFAD6E73D22C2E770
:1033D000DBF880232B01D2584A452FD0204B9A424C
:1033E0002ED0204B9A422FD01F4B9A422AD01F4BEF
:1033F0009A4227D01E4B9A4228D01E4B9A4225D083
:103400001D4B9A4226D01D4B9A4221D01C4B9A420A
:103410000CBF4D2268229EE792095146384601F0C2
:1034200081FADBF8783324F03F05B5EB830FC7D37F
:1034300038461449BDE8F84F00F07ABE54228AE7B6
:103440004C2288E7532286E7442284E7412282E720
:10345000422280E746227EE7E82E0C10282F0C102F
:10346000F8DF0C1014CA0C105CF70C1090F20C1062
:10347000F8C40C102CC50C1034D20C1024D70C102E
:1034800058E10C10B4AD0E10D0310008202F0C10F4
:10349000042F0C10FCF90C1080B485B000AF7860DC
:1034A000396041F20553FB607A683B681344BB60A6
:1034B0000AE0FB685A01FB6813447A6812785340AB
:1034C000FB607B6801337B607A68BB689A42F0D30B
:1034D000FB68DBB2FB60FB68002B02D1FB680133A9
:1034E000FB60FB6818461437BD465DF8047B7047E7
:1034F00080B400AF054B064A5A62044B0022C3F861
:10350000C02200BFBD465DF8047B7047D031000883
:103510006C300D1080B584B000AF7860144B5B6ADE
:10352000FB6002E0FB681B68FB607B681B68FA6855
:103530005268C2F31E029342F4D37B681B68FA6898
:103540005268C2F31E029A1A7B681A607B681A6876
:10355000FB68DB689A4205D3064B074AC621074839
:10356000B7F030F8FB6818461037BD4680BD00BF85
:10357000D03100081C580C10A46F0C102C580C10E3
:1035800080B588B000AF7860396079683868FFF737
:1035900083FFF8613F4B5B6ADA683E4B5B6A9B686E
:1035A0009A424AD33B4B5B6A9B685B00BB61BB6939
:1035B0000A2B38BF0A23BB61BA6913465B00134468
:1035C0005B0018337B617869FEF79AFF38613B69CD
:1035D000002B06D12F4B0022C3F8C022B8691CF083
:1035E00009FC3B6903F11802BB699B001A443B6963
:1035F0001A613B691A69BB691A443B695A61254BD8
:103600005A6A3B691A60234B5B6A5B68C3F31E030B
:103610001A46204B5B6ADB68134423F000413A6989
:10362000536861F31E0353603B69BA699A603B6952
:103630000022DA60174A3B695362164B5B6ADB680B
:10364000FB60144B5B6A1A69FB681344FA69D2B2D7
:103650001A70104B5B6A5A69FB6813447A68D2B2DD
:103660001A700C4B5B6AFA680632396843F822100C
:10367000084B5B6ADA680132DA60064B5B6A5B68AA
:10368000C3F31E031A46FB68134418462037BD4691
:1036900080BD00BFD031000880B58AB000AF78602F
:1036A00039603B68002B01D101236CE039687868F0
:1036B000FFF7F2FE7861364B5B6A7B625FE00023C6
:1036C0003B627B6ADB68013BFB617B6ADB7923F051
:1036D0007F03DBB2002B1DD017E03A6AFB6913446D
:1036E0005B083B617B6A3A69063253F822303A68DC
:1036F00019467868B8F0DBFDF860FB68002B02DC47
:103700003B69FB6101E03B693B62FA693B6AD31AA2
:10371000012BE2D83B6ABB6129E07B6A1A69BB696D
:1037200013441B781A467B6993421DD17B6A5A6900
:10373000BB6913441B781A463B68934214D17B6AD9
:10374000BA69063253F822303A6879681846B7F0F9
:1037500095FA0346002B07D17B6A5B68C3F31E030F
:103760001A46BB6913440EE0BB690133BB61FB69B8
:103770000133BA699A42D0D37B6A1B687B627B6A49
:10378000002B9CD1002318462837BD4680BD00BFC2
:10379000D031000880B582B000AF78607868B8F0AA
:1037A0007EFD03461946786800F0D0F803461846B7
:1037B0000837BD4680BD000080B58AB000AFF86014
:1037C000B9601346FB71B968F868FFF765FF786266
:1037D0007B6A002B40F0A980BB68FF2B03D95549B9
:1037E00055481CF01FFBFB79002B0DD0FA68BB6815
:1037F00013441B78002B00F09280504B504A4FF43A
:10380000A3715048B6F0DEFEBB680133FB614E4B3E
:10381000D3F8C032002B34D04B4BD3F8C822FB690D
:103820001A44494BD3F8C4329A422AD9464BD3F8AA
:10383000C002454BD3F8C412434BD3F8C422FB69F2
:103840001A440023FEF70EFFB861BB69002B10D1AC
:103850003D4BD3F8C0023C4BD3F8C4123A4BD3F8DB
:10386000C8220023FEF7FEFE374B0022C3F8C02219
:1038700007E0354BD3F8C422FB691344324AC2F83F
:10388000C432314BD3F8C032002B2BD1FB693B62E1
:103890003B6A7F2B01D880233B62386AFEF730FEFB
:1038A0000346294AC2F8C032274BD3F8C032002B56
:1038B00010D1F869FEF724FE0346234AC2F8C0324D
:1038C000214BD3F8C032002B02D1F8691CF092FAD8
:1038D000FB693B621C4A3B6AC2F8C4321A4B0022A5
:1038E000C3F8C822184BD3F8C022174BD3F8C832FC
:1038F00013447B61144BD3F8C822FB691344124A6A
:10390000C2F8C832BA68F9687869B7F0C7F97A6955
:10391000BB68134400221A707B69FB6000E000BFA3
:10392000F968B868FFF72CFE78627B6A184628377A
:10393000BD4680BD3C580C1048D00C104C580C10A3
:10394000B06F0C102C580C10D031000880B582B02C
:1039500000AF78603960002239687868FFF72CFF83
:10396000034618460837BD4680BD80B584B000AF19
:1039700078603B1D1846FFF7CDFDF860FB681A69BB
:103980007B6813441B7818461037BD4680BD80B550
:1039900084B000AF78603B1D1846FFF7BBFDF860B0
:1039A000FB685A697B6813441B7818461037BD467C
:1039B00080BD80B584B000AF78603B1D1846FFF72E
:1039C000A9FDF8607A68FB68063253F82230184681
:1039D0001037BD4680BD80B584B000AF78603960D7
:1039E0003B1D1846FFF796FDF860FB685A697B6837
:1039F00013441B781A463B681A607A68FB680632E3
:103A000053F8223018461037BD4680BD80B588B0C7
:103A100000AFF860B9607A603B60FB6800221A6012
:103A2000BB6800221A607B6800221A603B68002293
:103A30001A60234B5B6AFB6130E0FB681B685A1C11
:103A4000FB681A60BB681A68FB69DB681A44BB68CC
:103A50001A60FB695B69BB61FB695A69FB69DB68DA
:103A600013447B610AE07B681B68BA6912781344CF
:103A70005A1C7B681A60BB690133BB61BA697B69F8
:103A80009A42F0D3F869FFF7E5FA02463B681B68F3
:103A90001A443B681A60FB691B68FB61FB69002BD9
:103AA00003D0FB69074A9342C7D13B681A687B6819
:103AB0001B681A443B681A6000BF2037BD4680BDB2
:103AC000D03100086C300D1080B584B000AF164BBB
:103AD0005B6AFB601CE0FB681833BB60FB6803F1AA
:103AE0001802FB68DB689B0013447B6009E0BB683D
:103AF0001B681A460D490E4800F014FFBB680433DA
:103B0000BB60BA687B689A42F1D3FB681B68FB60B4
:103B1000FB68002B03D0FB68064A9342DBD100BF51
:103B20001037BD4680BD00BFD031000860580C1072
:103B300020700C106C300D1080B582B000AF786032
:103B400039603B68002B01D101233B607B683A68F8
:103B50001A607B6800225A607B681B681846FEF773
:103B600097FC02467B689A607B6800221A7300BF4C
:103B70000837BD4680BD80B582B000AF786039603F
:103B80003B68013319467868FFF7D6FF7B683A68CF
:103B90005A6000BF0837BD4680BD80B485B000AF15
:103BA000F860B9607A60FB68BA681A60FB68002246
:103BB0005A60FB687A689A60FB6801221A7300BF3A
:103BC0001437BD465DF8047B7047000080B584B0B3
:103BD00000AFF860B9607A60B968F868FFF7ACFFC9
:103BE0007B68FA681A607B68024A5A6000BF103727
:103BF000BD4680BD3D3F001080B582B000AF78600B
:103C00007B681B7B83F00103DBB2002B07D07B6852
:103C10009A687B681B6819461046FEF761FD7B6851
:103C200000229A6000BF0837BD4680BD80B584B0D1
:103C300000AF78601020FEF72BFCF8607968F86818
:103C4000FFF77AFFFB6818461037BD4680BD80B588
:103C500082B000AF78607B68002B12D07B681B7B42
:103C600083F00103DBB2002B07D07B689A687B6886
:103C70001B6819461046FEF733FD10217868FEF7E1
:103C80002FFD00BF0837BD4680BD000080B584B061
:103C900000AF786039607B681B7B002B03D000216C
:103CA00010481CF0BFF87B6898687B6819687B68CF
:103CB0001A683B6813441A46FEF796FCF8607B6866
:103CC0001B68FA681344BB607B681A683B681A4437
:103CD0007B681A607B68FA689A60BB681846103780
:103CE000BD4680BD48D00C1080B584B000AF786070
:103CF00039607B685A683B681A447B681B689A4243
:103D00001FD97B681B7B002B03D000210F481CF0C0
:103D100089F87B685A683B681344103323F0070323
:103D20000833FB607B6898687B681B68FA681946F3
:103D3000FEF75AFCB8607B68FA681A607B68BA685C
:103D40009A6000BF1037BD4680BD00BF48D00C1040
:103D500080B584B000AF7860396039687868FFF763
:103D6000C3FF7B689A687B685B681344FB607B6871
:103D70005A683B681A447B685A60FB6818461037DB
:103D8000BD4680BD80B582B000AF78607B681A68A0
:103D90007B685B689A4203D101217868FFF776FF60
:103DA0007B689A687B685B68134400221A707B68A2
:103DB0009B6818460837BD4680BD80B584B000AF0B
:103DC00078600B46FB7001217868FFF7C1FFF8604F
:103DD000FB68FA781A7000BF1037BD4680BD00003E
:103DE00080B586B000AF786039603B687F2B09D81A
:103DF00001217868FFF7ACFFB8603B68DAB2BB68B6
:103E00001A707FE03B68B3F5006F18D20221786822
:103E1000FFF79EFFF8603B689B09DBB263F03F034E
:103E2000DAB2FB681A703B68DBB203F03F03DAB228
:103E3000FB68013362F07F02D2B21A7062E03B6825
:103E4000B3F5803F24D203217868FFF781FF386102
:103E50003B681B0BDBB263F01F03DAB23B691A70DD
:103E60003B689B09DBB203F03F03DAB23B690133E5
:103E700062F07F02D2B21A703B68DBB203F03F03FC
:103E8000DAB23B69023362F07F02D2B21A7039E0D3
:103E90003B68B3F5881F05D31C4B1D4AA4211D4860
:103EA000B6F090FB04217868FFF752FF78613B6819
:103EB0009B0CDBB263F00F03DAB27B691A703B68CC
:103EC0001B0BDBB203F03F03DAB27B69013362F014
:103ED0007F02D2B21A703B689B09DBB203F03F034A
:103EE000DAB27B69023362F07F02D2B21A703B68A9
:103EF000DBB203F03F03DAB27B69033362F07F0287
:103F0000D2B21A7000BF1837BD4680BDC86F0C1002
:103F1000E86F0C10D86F0C1080B582B000AF7860DD
:103F200039603868B8F0BBF903461A4639687868D2
:103F300000F004F800BF0837BD4680BD80B584B0EE
:103F400000AFF860B9607A607968F868FFF7CCFE76
:103F5000FB689A68FB685B6813447A68B96818461E
:103F6000B6F0AAFEFB685A687B681A44FB685A6080
:103F700000BF1037BD4680BD80B586B000AFF86089
:103F8000B9607A60FB685B687B61BA687B699A425A
:103F900001D97B69BB607B68002B19D07968F86810
:103FA000FFF7A2FEFB689A68B9687B680B44D018DB
:103FB000FB689A68BB68D1187A69BB68D31A1A463D
:103FC000B6F07AFEFB685A687B681A44FB685A6050
:103FD000FB689A68BB68134418461837BD4680BD15
:103FE00080B586B000AFF860B9601346FB7101225E
:103FF000B968F868FFF7C0FF78617B69FA791A70D1
:1040000000BF1837BD4680BD80B586B000AFF860F0
:10401000B9607A600122B968F868FFF7ADFF78618E
:104020007B68DAB27B691A7000BF1837BD4680BD65
:1040300080B483B000AF786039607B685B683A68B1
:104040009A4203D97B6800225A6005E07B685A686F
:104050003B68D21A7B685A6000BF0C37BD465DF8DA
:10406000047B704780B584B000AFF860B9607A60B7
:10407000FB685B68BA689A4224D2BA687B681A44C3
:10408000FB685B689A4203D3FB68BA685A601AE01F
:10409000FB689A68BB68D018FB689A68B9687B6847
:1040A0000B44D118FB685A68BB68D21A7B68D31AD4
:1040B0001A46B6F001FEFB685A687B68D21AFB68A4
:1040C0005A6000E000BF1037BD4680BD80B483B0A9
:1040D00000AF78607B6803F00103002B14BF01235D
:1040E0000023DBB218460C37BD465DF8047B7047F1
:1040F00080B483B000AF78607B6803F00303002BCB
:104100000CBF01230023DBB218460C37BD465DF817
:10411000047B704780B584B000AFF860B9607A6006
:104120007968B86853F0B6FC00BF1037BD4680BD53
:1041300080B584B000AF786039603868B8F0AFF807
:10414000F860FB68002B06D07B685B687A681068B3
:10415000FA6839689847FB6818461037BD4680BD35
:1041600080B58EB000AFF860B9607A603B60002324
:104170007B6300233B637A6C7B68D31AFB6200236A
:104180007B623B685B0AFB7597F84030002B03D0DD
:1041900097F84030202B04D1564B3B621023BB6272
:1041A00040E097F84030302B07D1FB7D002B04D145
:1041B000514B3B621023BB6234E097F84030302B08
:1041C0002BD1FB7D5F2B04D14C4B3B620523BB62A3
:1041D00003E04B4B3B620423BB627B6CBA6A93FBEC
:1041E000F2F2B96A01FB02F29B1A002B05D1FB6ABD
:1041F0000133FB627B6C01337B64BB6A5A1E7B6CB0
:10420000B96A93FBF1F1B86A00FB01F15B1AD31AAA
:104210001A463B6A13443B6204E007F140033B62E9
:104220000123BB623B6803F02003002B09D0FB6A2B
:10423000DA0F13445B107B63FA6A7B6BD31A3B6320
:1042400009E03B6803F00103002B02D0FB6A3B63EB
:1042500001E0FB6A7B637B6B002B1ADD7A6A7B6B68
:1042600013447B6212E07B6BFB61FA69BB6A9A4282
:1042700001DDBB6AFB61FB685B68FA681068FA697C
:10428000396A98477A6BFB69D31A7B637B6B002B87
:10429000E9DC7B68002B0AD0FB685B68FA68106871
:1042A0007A68B96898477A6A7B6813447B623B6B8B
:1042B000002B1ADD7A6A3B6B13447B6212E03B6B86
:1042C000BB61BA69BB6A9A4201DDBB6ABB61FB682C
:1042D0005B68FA681068BA69396A98473A6BBB69D3
:1042E000D31A3B633B6B002BE9DC7B6A18463837FB
:1042F000BD4680BDF86F0C1008700C1014700C10C7
:1043000019700C1080B58EB002AFF860B9607A6099
:104310003B60002387F823307B68002B1AD0BB68F2
:10432000002B06DA2D2387F82330BB685B42BB6085
:1043300010E0FB6B03F00203002B03D02B2387F864
:10434000233007E0FB6B03F00403002B02D0202393
:1043500087F8233007F110031033FB62BB68002B92
:1043600006D1FB6A013BFB62FB6A30221A7027E030
:104370003A68BB68B3FBF2F101FB02F29B1ABB6225
:104380003B68BA68B2FBF3F3BB60BB6A092B05DD7F
:10439000BB6B0A3BBA6A1344BB6202E0BB6A3033B0
:1043A000BB62FB6A013BFB62BB6ADAB2FB6A1A7052
:1043B00007F11003FA6A9A4202D9BB68002BD7D1E1
:1043C00000237B62FB6B03F01003002B18D097F8DF
:1043D0002330002B24D0FA6B07F123010123019332
:1043E00097F84030009313460122F868FFF7B8FEB3
:1043F00002467B6A13447B627B6C013B7B640FE06B
:1044000097F82330002B0BD007F11003FA6A9A4279
:1044100006D9FB6A013BFB6297F82320FB6A1A70FE
:1044200007F110031033FA6A9B1A1946FA6B7B6C7A
:10443000019397F84030009313460A46F96AF868EA
:10444000FFF78EFE02467B6A13447B627B6A184646
:104450003037BD4680BD0000B0B59AB004AFF860FB
:10446000B9607A603B607B68022B0ED07B68082BBA
:104470000BD07B680A2B08D07B68102B05D08C4BA7
:104480008C4AED218C48B6F09DF8B868FFF71EFE07
:10449000034683F00103DBB2002B15D0B868FFF7A9
:1044A00027FE034683F00103DBB2002B04D1BB6877
:1044B0001B68824A934207D0B8681DF0C2FB0346CE
:1044C0005B0043F00103BB60BB6E03F02103002BD4
:1044D0000BD197F86C30302B07D17A6F3B6F9A4233
:1044E00001DD7B6F3B6700237B6707F134037B654E
:1044F000B86825F069F80346002B14DBBB6E03F0A7
:104500000203002B05D07B6D5A1C7A652B221A7092
:1045100009E0BB6E03F00403002B04D07B6D5A1C32
:104520007A6520221A70BB6E03F00803002B36D088
:104530007B68022B0DD17B6D5A1C7A6530221A7074
:104540003B68DAB27B6D591C79650132D2B21A70C0
:1045500025E07B68082B12D17B6D5A1C7A653022CE
:104560001A70BB6E03F08003002B18D03B68DAB2E0
:104570007B6D591C79650E32D2B21A700FE07B68E0
:10458000102B0CD17B6D5A1C7A6530221A703B6857
:10459000DAB27B6D591C79651732D2B21A707B6D15
:1045A00000221A7007F134037A6DD31AFB6307F106
:1045B00034037B65BB6E5B1287F83B3007F1240345
:1045C0003B621023FB610023BB617B6F012B03DD8A
:1045D000BB6E43F01003BB660023FB75BB6E03F09C
:1045E0001003002B22D07B683A68D2B207F118057D
:1045F00007F11C0407F1200097F83B100391029289
:10460000002201920093BB682A46214624F0D8FB81
:1046100038653B6D1B782D2B1ED13B6D5A1C3A65BE
:104620001B78FB75BB69013BBB6115E07B683A6891
:10463000D2B207F1180507F11C0407F1200097F822
:104640003B10039102927A6D01920093BB682A4657
:10465000214624F0B5FB38650023FB640023BB64CE
:104660007B6F012B37DDBB697B647A6C7B6F9A4271
:1046700001DA7B6F7B64BB6E03F01003002B09D063
:10468000FB7D002B02D07B6C01337B647A6CFB6B6F
:1046900013447B647A6C3B6F9A4215DABB6E03F06D
:1046A0000103002B0CD03A6F7B6CD31ABB640BE078
:1046B00028700C10B4700C105C700C10C8D90C1061
:1046C0003A6F7B6CD31AFB64302387F86C30BB6E77
:1046D00023F00103BB6600233B64FB6C002B0DD071
:1046E000FB6C019320230093002300223649F868D5
:1046F000FFF736FD02463B6C13443B64BB6E03F090
:104700001003002B29D0FB7D002B11D007F11701DE
:10471000012301930023009300230122F868FFF78F
:104720001FFD02463B6C13443B643B6F013B3B6700
:10473000FB6B002B11D0FA6B012301930023009334
:104740000023796DF868FFF70BFD02463B6C1344BC
:104750003B643A6FFB6BD31A3B677B6F012B01DD28
:104760007B6F3B67BA69B96E3B6F019397F86C300A
:1047700000930B46396DF868FFF7F2FC02463B6C7C
:1047800013443B64BB6C002B0DD0BB6C0193202306
:104790000093002300220C49F868FFF7E1FC024671
:1047A0003B6C13443B643A6A07F124039A4205D0F8
:1047B0003B6AFA6911461846FDF792FF3B6C1846B2
:1047C0005837BD46B0BD00BF70700C1080B594B0B6
:1047D00002AFF860B9603B601346FB71002387F8B5
:1047E000473000233B643B6803F00203002B03D0F7
:1047F0002B2387F8473007E03B6803F00403002BC6
:1048000002D0202387F84730FA7907F1140197F88E
:1048100047300193BB6D009313462122B86816F010
:10482000F3FCF86307F11403BB633B6803F4807384
:10483000002B30D007F114032E211846B7F0FFFCEF
:104840000346002B27D107F1140365211846B7F062
:10485000F6FC0346002B1ED107F114036E21184607
:10486000B7F0EDFC0346002B15D1FB6B5A1CFA6325
:1048700048333B442E2203F8342CFB6B5A1CFA635A
:1048800048333B44302203F8342C07F11402FB6B0D
:10489000134400221A703B6803F04003002B0DD034
:1048A000FB6B5A1CFA6348333B44252203F8342C33
:1048B00007F11402FB6B134400221A703B6803F0EB
:1048C0001003002B1AD03B7D2F2B17D8BB6B013365
:1048D000BB6307F11401012301930023009300231C
:1048E0000122F868FFF73CFC02463B6C13443B6432
:1048F0007B6D013B7B65FB6B013BFB63FA6B7B6D67
:10490000019397F8503000933B68B96BF868FFF754
:1049100027FC02463B6C13443B643B6C184648370B
:10492000BD4680BD0EB480B585B000AF786007F19C
:104930002003BB60BA68F969786800F009F8F8608C
:10494000FB6818461437BD46BDE8804003B0704789
:1049500080B598B004AFF860B9607A600023FB645A
:10496000BB68BB6402E0BB6C0133BB64BB6C1B78EF
:10497000002B03D0BB6C1B78252BF4D1BA6CBB6821
:104980009A4210D9FB685B68FA681068B96CBA681B
:104990008A1AB9689847BA6CBB68D31AFA6C134480
:1049A000FB64BB6CBB60BB681B78002B00F02182F2
:1049B000BB680133BB6000237B64202387F843304E
:1049C00028E0BB681B782D2B04D17B6C43F00103DE
:1049D0007B641CE0BB681B782B2B04D17B6C43F001
:1049E00002037B6413E0BB681B78202B04D17B6C33
:1049F00043F004037B640AE0BB681B78302B0ED1C4
:104A00007B6C43F010037B64302387F84330BB6832
:104A10000133BB60BB681B78002BD2D100E000BF24
:104A20000023FB630DE0FA6B13469B0013445B000D
:104A30001A46BB681B781344303BFB63BB680133E9
:104A4000BB60BB681B782F2B03D9BB681B78392B45
:104A5000E9D94FF0FF33BB63BB681B782E2B2DD1F8
:104A6000BB680133BB60BB681B782A2B08D1BB68CD
:104A70000133BB607B681A1D7A601B68BB6318E05A
:104A80000023BB630DE0BA6B13469B0013445B002D
:104A90001A46BB681B781344303BBB63BB680133C9
:104AA000BB60BB681B782F2B03D9BB681B78392BE5
:104AB000E9D9BB6B002B01DA0023BB63BB681B7811
:104AC0006C2B02D1BB680133BB60BB681B78002B29
:104AD00000F09181BB681B78453B332B00F26F815E
:104AE00001A252F823F000BF794D0010794D00105B
:104AF000794D0010BF4D0010BF4D0010BF4D00108C
:104B0000BF4D0010BF4D0010BF4D0010BF4D001035
:104B1000BF4D0010F94C0010BF4D0010BF4D0010EC
:104B2000BF4D0010BF4D0010BF4D0010BF4D001015
:104B3000BF4D0010F94C0010BF4D0010BF4D0010CC
:104B4000BF4D0010BF4D0010BF4D0010BF4D0010F5
:104B5000BF4D0010BF4D0010BF4D0010B94B0010ED
:104B6000094C0010F94C0010794D0010794D0010DF
:104B7000794D0010BF4D0010BF4D0010BF4D00100B
:104B8000BF4D0010BF4D0010BF4D0010BF4D0010B5
:104B9000BF4D0010F94C0010394C0010BF4D0010F3
:104BA000854C0010BF4D0010F94C0010BF4D001097
:104BB000BF4D0010F94C00107B681A1D7A601B680D
:104BC000002B10D07A6CFB6B019397F84330009365
:104BD000134604228B49F868FFF7C2FA0246FB6CC1
:104BE0001344FB6401E17A6CFB6B019397F843304B
:104BF0000093134605228449F868FFF7B1FA02468C
:104C0000FB6C1344FB64F0E07B681A1D7A601B6840
:104C1000DBB2FB757A6C07F11701FB6B019397F818
:104C20004330009313460122F868FFF799FA0246D1
:104C3000FB6C1344FB64D8E07B681A1D7A601B6828
:104C40007B6207F110031946786AFEF7C4FE3862EA
:104C5000BB6B002B05DBBA6B3B699A4201D2BB6B85
:104C60003B613A69796CFB6B019397F84330009391
:104C70000B46396AF868FFF773FA0246FB6C134477
:104C8000FB64B2E07B681A1D7A601B68BB62BB6B79
:104C9000002B13D0BB6A002B10D17A6CFB6B0193F5
:104CA00097F843300093134606225849F868FFF7F7
:104CB00057FA0246FB6C1344FB6496E0B86AB7F0FF
:104CC000EEFA7863BB6B002B05DBBB6B7A6B9A4209
:104CD00001D9BB6B7B637A6CFB6B019397F8433014
:104CE000009313467A6BB96AF868FFF739FA0246FF
:104CF000FB6C1344FB6478E0BB681B78FB77FB7F9D
:104D0000702B02D0FB7F502B05D17B681A1D7A6077
:104D10001B683B6304E07B681A1D7A601B683B6379
:104D2000FB7F23F00F03DBB20F3BBB77FB7F642BD2
:104D300002D0FB7F752B02D10A23FB6201E0102316
:104D4000FB62FB7F642B0CBF01230023DBB21946FF
:104D5000BB7FFA6B039297F8432002927A6C019220
:104D60000093FB6A0A46396BF868FFF7CBFA0246F4
:104D7000FB6C1344FB6438E07B68073323F00703C4
:104D800003F108027A60D3E9002310461946B5F012
:104D90009BF90346BB61BB681A78796CBB6B0293C5
:104DA000FB6B019397F8433000930B46B969F868A1
:104DB000FFF70CFD0246FB6C1344FB6415E0BB6877
:104DC0001B78252B06D0124B124A40F26D21124857
:104DD000B5F0F8FBFB685B68FA6810680122B968F7
:104DE0009847FB6C0133FB6400BFBB680133BB60B9
:104DF000B6E500BF00E000BFFB6C18465037BD466B
:104E000080BD00BF74700C107C700C1084700C108E
:104E10008C700C10C4700C105C700C1080B485B0D9
:104E200000AF78607B685A1C7A601B78FB60FB6877
:104E300003F08003002B01D1FB6825E0FB6803F041
:104E40007F03FB604023BB6007E0BB68DB43FA687D
:104E50001340FB60BB685B08BB60FA68BB6813402B
:104E6000002BF2D109E0FB689A017B68591C79603C
:104E70001B7803F03F031343FB607B681B7803F050
:104E8000C003802BEFD0FB6818461437BD465DF891
:104E9000047B704780B483B000AF78607B680133D7
:104EA0007B6002E07B6801337B607B681B7803F0EA
:104EB000C003802BF6D07B6818460C37BD465DF8E2
:104EC000047B704780B485B000AF78603960002300
:104ED000FB600BE03B68013B3B603B681B7803F0E9
:104EE000C003802B02D0FB680133FB603A687B680B
:104EF0009A42EFD8FB6818461437BD465DF8047B2C
:104F0000704780B485B000AF786039600023FB60E3
:104F10007A683B681344BB600BE07B681B7803F046
:104F2000C003802B02D0FB680133FB607B68013338
:104F30007B607A68BB689A42EFD3FB6818461437E7
:104F4000BD465DF8047B704780B483B000AF7860E5
:104F50007B687F2B09D80A4A7B6813441B7803F0CF
:104F60000203002B01D0012300E0002303F0010322
:104F7000DBB218460C37BD465DF8047B704700BFB6
:104F8000D0700C1080B483B000AF78607B687F2B4A
:104F900009D80A4A7B6813441B7803F00803002BE6
:104FA00001D0012300E0002303F00103DBB2184627
:104FB0000C37BD465DF8047B704700BFD0700C1005
:104FC00080B483B000AF78607B687F2B09D80A4A31
:104FD0007B6813441B7803F00403002B01D00123EA
:104FE00000E0002303F00103DBB218460C37BD4696
:104FF0005DF8047B704700BFD0700C1080B483B0A4
:1050000000AF78607B687F2B09D80A4A7B6813441D
:105010001B7803F04003002B01D0012300E00023A4
:1050200003F00103DBB218460C37BD465DF8047B84
:10503000704700BFD0700C1080B483B000AF7860B0
:105040007B687F2B0CD80B4A7B6813441B7803F0DA
:105050000C03002B02D17B685F2B01D1012300E000
:10506000002303F00103DBB218460C37BD465DF8A0
:10507000047B7047D0700C1080B483B000AF7860B0
:105080007B687F2B09D80A4A7B6813441B7803F09E
:105090001003002B01D0012300E0002303F00103E3
:1050A000DBB218460C37BD465DF8047B704700BF85
:1050B000D0700C1080B483B000AF78607B687F2B19
:1050C00009D80A4A7B6813441B7803F02003002B9D
:1050D00001D0012300E0002303F00103DBB21846F6
:1050E0000C37BD465DF8047B704700BFD0700C10D4
:1050F00080B582B000AF78607868FFF7BDFF0346E7
:10510000002B02D07B68203300E07B68184608370C
:10511000BD4680BD80B582B000AF78607868FFF78B
:10512000C9FF0346002B02D07B68203B00E07B6870
:1051300018460837BD4680BD80B485B000AF7860A2
:105140007B68303BFB60FB68092B06D9FB6823F0CA
:105150002003FB60FB68073BFB60FB6818461437C5
:10516000BD465DF8047B704780B487B000AF7860BF
:1051700039600023FB757A683B6813443B612EE07D
:105180007B681B78FB73FB7D002B0AD0FB7B03F055
:10519000C003802B03D1FB7D013BFB751CE000238A
:1051A00027E0FB7BBF2B11D9FB7BF72B01D9002319
:1051B0001FE0FB7BDB08DBB203F00603E52242FACB
:1051C00003F3DBB203F00303FB7505E097F90F303F
:1051D000002B01DA00230CE07B6801337B607A68E6
:1051E0003B699A42CCD3FB7D002B0CBF01230023EB
:1051F000DBB218461C37BD465DF8047B704780B4AF
:1052000083B000AF78607B685B68002B0CBF012324
:105210000023DBB218460C37BD465DF8047B7047AF
:1052200080B483B000AF786039603B68023B3B607C
:1052300002E03B68023B3B603A687B689A4203D3DA
:105240003B681B88002BF4D03B689A1C7B68D31A00
:105250005B1018460C37BD465DF8047B704780B480
:1052600087B000AFF860B9607A603B60BA683B68AD
:105270009A4202D24FF0FF332FE0BA683B689A425D
:1052800001D9012329E0BB685B00FA681344FB6085
:10529000BB685B007A6813447B601AE0FB68023BE2
:1052A000FB60FB681B881A467B68023B7B607B685F
:1052B0001B88D31A7B617B69002B02DA4FF0FF3326
:1052C0000BE07B69002B01DD012306E0BB68013B9D
:1052D000BB60BB68002BE1D1002318461C37BD46DC
:1052E0005DF8047B704780B588B000AFF860B960A6
:1052F0007A603B603B680F331B093B613B6803F0FE
:105300000F03FB61FB69002B01D11023FB617A685D
:105310003B69134403F10043013B5B00FA6813440B
:10532000FB607B6803F10043013B5B00BA681344F8
:10533000BB600023BB617B687B611AE0BB681B8894
:105340001A46BB691343BB61FB69C3F11003BA6919
:1053500022FA03F39AB2FB681A80BB691B04BB6193
:105360007B69013B7B61FB68023BFB60BB68023BE6
:10537000BB607B69002BE1D1FB69C3F11003BA6903
:1053800022FA03F39AB2FB681A803B69C3F1010366
:105390005B00FA681344FB603B69013B5B001A4603
:1053A0000021F868B5F0A2FC7A683B6913447B6081
:1053B00002E07B68013B7B607B68002B09D07B6847
:1053C00003F10043013B5B00FA6813441B88002B88
:1053D000EFD07B6818462037BD4680BD80B489B0C9
:1053E00000AFF860B9607A603B603B681B097B6185
:1053F0003B6803F00F033B617A697B689A4201D3F3
:10540000002336E07B695B00BA681344BB607A68AE
:105410007B69D31A7B607B68FB611EE0BB681B88DD
:10542000BB61FB69012B06D9BB6802331B881B04D7
:10543000BA691343BB61BA693B6922FA03F3BB61E2
:10544000BB699AB2FB681A80FB69013BFB61FB6890
:105450000233FB60BB680233BB60FB69002BDDD10C
:10546000FB68023B1B88002B02D17B68013B7B6001
:105470007B6818462437BD465DF8047B704780B4CE
:1054800087B000AFF860B9607A603B60FB683B6151
:1054900000237B617A683B6AD31A7B601BE0BB68A0
:1054A0001B881A463B681B8813447A6913447B6146
:1054B0007B699AB2FB681A807B691B0C7B613B6A33
:1054C000013B3B62FB680233FB60BB680233BB609D
:1054D0003B6802333B603B6A002BE0D115E0BB68C0
:1054E0001B881A467B6913447B617B699AB2FB680F
:1054F0001A807B691B0C7B617B68013B7B60FB68CE
:105500000233FB60BB680233BB607B68002BE6D1D3
:105510007B69002B05D0FB689A1CFA607A6992B20D
:105520001A80FA683B69D31A5B1018461C37BD46CF
:105530005DF8047B704780B586B000AFF860B96055
:105540007A603B60FB683B6100237B617A683B6A61
:10555000D31A7B601BE0BB681B881A463B681B881C
:10556000D21A7B6913447B617B699AB2FB681A800B
:105570007B691B147B613B6A013B3B62FB68023326
:10558000FB60BB680233BB603B6802333B603B6A35
:10559000002BE0D115E0BB681B881A467B691344D9
:1055A0007B617B699AB2FB681A807B691B147B6103
:1055B0007B68013B7B60FB680233FB60BB680233A6
:1055C000BB607B68002BE6D1F9683869FFF728FEDD
:1055D000034618461837BD4680BD80B586B000AF7B
:1055E000F860B9607A603B60FB687B6113E0BB6880
:1055F0001A887B681B8813409AB2FB681A803B6844
:10560000013B3B60FB680233FB60BB680233BB605D
:105610007B6802337B603B68002BE8D1F9687869CE
:10562000FFF7FEFD034618461837BD4680BD80B51E
:1056300088B000AFF860B9607A603B60FB68FB61DE
:10564000FB6A002B01D1002301E04FF6FF737B833F
:105650003B6B002B01D1002301E04FF6FF733B832E
:105660007B6B002B01D1002301E04FF6FF73FB821F
:105670003BE0BB681A883B8B53409BB21A463B6B9E
:1056800013443B63BB6A013BBB627B68013B7B60AD
:10569000BA6A7B689A4207D83B689A1C3A601A88B3
:1056A000FB8A53409BB200E0FB8A1A467B6B134493
:1056B0007B633A6B7B6B1A407B8B53409BB2FA6ADD
:1056C0001344FB62FB6A9AB2FB681A807B6B1B0C6B
:1056D0007B633B6B1B0C3B63FB6A1B0CFB62FB6835
:1056E0000233FB60BB680233BB607B68002BC0D118
:1056F000FB6A002B05D0FB689A1CFA60FA6A92B22A
:105700001A80F968F869FFF78BFD034618462037C1
:10571000BD4680BD80B487B000AFF860B9607A60E4
:105720003B60FB687B617A683B6AD31A7B6013E05D
:10573000BB681A883B681B8813439AB2FB681A80BF
:105740003B6A013B3B62FB680233FB60BB68023390
:10575000BB603B6802333B603B6A002BE8D10CE046
:10576000BB681A88FB681A807B68013B7B60FB681A
:105770000233FB60BB680233BB607B68002BEFD158
:10578000FA687B69D31A5B1018461C37BD465DF872
:10579000047B704780B588B000AFF860B9607A606C
:1057A0003B60FB68BB610123FB61FB6A002B01D1FD
:1057B000002301E04FF6FF73FB823B6B002B01D10E
:1057C000002301E04FF6FF73BB823AE0BB681A8802
:1057D000FB8A53409BB21A46FB6A1344FB62BB6AC6
:1057E000013BBB627B68013B7B60BA6A7B689A4283
:1057F00007D83B689A1C3A601A88BB8A53409BB210
:1058000000E0BB8A1A463B6B13443B63FA6A3B6B6E
:105810001343DB439BB2FA691344FB61FB699AB201
:10582000FB681A803B6B1B0C3B63FB6A1B0CFB6227
:10583000FB691B0CFB61FB680233FB60BB68023336
:10584000BB607B68002BC1D1FB69002B06D0084BE5
:10585000084A4FF4A1710848B4F0B4FEF968B86979
:10586000FFF7DEFC034618462037BD4680BD00BF6B
:1058700050710C10D0710C105C710C1080B586B09A
:1058800000AFF860B9607A603B60FB687B617A6862
:105890003B6AD31A7B6013E0BB681A883B681B889D
:1058A00053409AB2FB681A803B6A013B3B62FB683B
:1058B0000233FB60BB680233BB603B6802333B6072
:1058C0003B6A002BE8D10CE0BB681A88FB681A80A1
:1058D0007B68013B7B60FB680233FB60BB68023383
:1058E000BB607B68002BEFD1F9687869FFF798FC03
:1058F000034618461837BD4680BD80B586B000AF58
:10590000F860B9607A603B60FB687B613AE0BB6835
:105910001B881A46BB6A134403F57F43FF33BB62FF
:105920003B6A013B3B627B68013B7B603A6A7B6878
:105930009A4207D83B689A1C3A601B8803F57F435C
:10594000FF3301E04FF6FF731A46FB6A1344FB6214
:10595000BA6AFB6A53409BB27A6A13447B627B6AE1
:105960009AB2FB681A80FB6A1B0CFB62BB6A1B0CB9
:10597000BB627B6A1B0C7B62FB680233FB60BB680B
:105980000233BB607B68002BC1D17B6A002B05D042
:10599000FB689A1CFA607A6A92B21A80F968786990
:1059A000FFF73EFC034618461837BD4680BD80B45D
:1059B00087B000AFF860B96011461A460B46FB800D
:1059C0001346BB80FB683B61BB887B6115E0FB68CD
:1059D0001B881A46FB8802FB03F37A6913447B6138
:1059E0007B699AB2FB681A807B691B0C7B61BB6880
:1059F000013BBB60FB680233FB60BB68002BE6D158
:105A00007B69002B05D0FB689A1CFA607A6992B218
:105A10001A80FA683B69D31A5B1018461C37BD46DA
:105A20005DF8047B704780B48BB000AFF860B9605C
:105A30007A603B60FB683B6100237B6240E0FB686F
:105A40003B620023FB617B68BB61BB687B611DE03F
:105A50003B6A1B881A467B691B8819463B681B8872
:105A600001FB03F31344FA691344FB61FB699AB227
:105A70003B6A1A80FB691B0CFB61BB69013BBB6184
:105A80007B6902337B613B6A02333B62BB69002B5B
:105A9000DED1FB69002B05D03B6A9A1C3A62FA6999
:105AA00092B21A803A6A3B69D31A5B107B623B6BF5
:105AB000013B3B63FB680233FB603B6802333B60A6
:105AC0003B6B002BBBD17B6A18462C37BD465DF87B
:105AD000047B704780B59AB000AFF860B9607A6017
:105AE0003B60FB68FB623B6FBB620023A7F866303C
:105AF000BB6819683B687A68F868FFF7B0FB7862A2
:105B00007B6A002B09D1BB6800221A603B6F01221F
:105B10001A807B6F01221A6089E17B6A002B03DA0D
:105B20007B6F00221A6082E13B6803F10043013B76
:105B30005B007A6813441B88A7F85E3009E0B7F869
:105B40005E305B00A7F85E30B7F866300133A7F827
:105B50006630B7F95E30002BF1DABB681B685B007A
:105B6000FA68134400221A80BB681B685A1CBB6881
:105B70001A60FB68BB650023A7F856301BE0BB6DBD
:105B80001B88FB82FA8AB7F8663002FA03F31AB26E
:105B9000B7F9563013431BB29AB2BB6D1A80FA8A1A
:105BA000B7F86630C3F1100322FA03F3A7F85630B2
:105BB000BB6D0233BB65BB681B685B00FA681344AE
:105BC000BA6D9A42DBD33B6803F10043013B5B00B3
:105BD0007A6813441B881A46B7F8663002FA03F352
:105BE0003B663B68012B11D93B6803F10043023B44
:105BF0005B007A6813441B881A46B7F86630C3F115
:105C0000100322FA03F33A6E13433B66BB681B682A
:105C100003F10043013B5B00FA681344FB60BB687F
:105C20001A683B68D21A7B6F1A607B6F1B6803F19E
:105C30000043013B5B003A6F13443B679CE0FB6809
:105C40001B881B04FA68023A128813433B653A6DBD
:105C50003B6EB2FBF3F33B657B68FB640023BB64E4
:105C600000237B643B685B005B42FA6813443B643F
:105C70002DE0FB6C1B881A46B7F866309A40BB6C67
:105C80001B0C1343BB64BB6C9AB23B6D02FB03F36A
:105C9000FB617B6C9BB23A6C128813441A46FB6919
:105CA0009BB2D31ABB61BB699AB23B6C1A807B6C06
:105CB0001B141A46FB691B0CD31ABA69121413443D
:105CC0007B643B6C02333B64FB6C0233FB643A6CD9
:105CD000FB689A42CDD3FB681B881A467B6C134441
:105CE0007B6437E07B68FB640023BB640023FB63B9
:105CF0003B685B005B42FA681344BB631FE0FB6CCC
:105D00001B881A46B7F866309A40BB6C1B0C1343CD
:105D1000BB64BB6B1B881A46BB6C9BB21344FA6B0B
:105D20001344FB63FB6B9AB2BB6B1A80FB6B1B0CBF
:105D3000FB63BB6B0233BB63FB6C0233FB64BA6B6C
:105D4000FB689A42DBD37A6CFB6B13447B643B6D3C
:105D5000013B3B657B6C002BC4D13B6D9AB23B6F22
:105D60001A803B6F023B3B67FB68023BFB60BB68F2
:105D70001B685A1EBB681A60BB681B683A689A4267
:105D8000FFF45DAFBB681B6803F10043013B5B00A0
:105D9000FA6A13447B6300237B861AE07B6B1B88C3
:105DA0007B847A8CB7F8663042FA03F31AB2B7F9FB
:105DB000323013431BB29AB27B6B1A807A8CB7F8DD
:105DC0006630C3F1100302FA03F37B867B6B023B60
:105DD0007B637A6BFB6A9A42E0D204E07B6F1B68BC
:105DE0005A1E7B6F1A607B6F1B68002B10D07B6F75
:105DF0001B6803F10043013B5B00BA6A13441B8834
:105E0000002BEBD004E0BB681B685A1EBB681A600D
:105E1000BB681B68002B0AD0BB681B6803F10043FA
:105E2000013B5B00FA6A13441B88002BEBD06837F8
:105E3000BD4680BD80B483B000AF78607A681378C7
:105E40006FF3000313707A6813786FF341031370D4
:105E50007A6813686FF39F0313607B6800225A60AF
:105E60007B6800229A6000BF0C37BD465DF8047B5A
:105E7000704780B582B000AF786039607868FFF70E
:105E8000D9FF3968786800F024F900BF0837BD46AB
:105E900080BD80B584B000AFF860B9607A603B60C7
:105EA000FA6813786FF300031370FA68137843F0FD
:105EB000020313707B6823F04041FA68136861F3B2
:105EC0009F031360FB6800225A60FB68BA689A60FF
:105ED0003968F86800F0FDF800BF1037BD4680BD96
:105EE00080B582B000AF78607B68002B11D07B68F2
:105EF0001B7803F00203DBB2002B0AD17B689A689F
:105F00007B681B68C3F39D035B0019461046FCF7D2
:105F1000E7FB00BF0837BD4680BD80B582B000AF4B
:105F200078607B68002B0ED07B689A687B681B6862
:105F3000C3F39D035B0019461046FCF7D1FB0C210F
:105F40007868FCF7CDFB00BF0837BD4680BD000078
:105F500080B582B000AF786039603B68012B01D812
:105F600002233B607B689B68002B07D07B681B6823
:105F7000C3F39D031A463B68934224D97B681B7880
:105F800003F00203DBB2002B06D0114B114A40F2A2
:105F9000AE211148B4F016FB7B6898687B681B68DB
:105FA000C3F39D0359003B685B001A46FCF71CFBDA
:105FB00002467B689A603B6823F040417A68136828
:105FC00061F39F03136000BF0837BD4680BD00BF6B
:105FD0006C710C10DC710C105C710C1080B584B00D
:105FE00000AF78607B681B6823F00303002B06D1A9
:105FF000214B224A40F2B5212148B4F0E3FA0C20AB
:10600000FCF746FAF8607B681B78C3F30003D9B24B
:10601000FA68137861F300031370FA6813786FF36A
:10602000410313707B681B68C3F39D01FA68136812
:1060300061F39F0313607B685A68FB685A60FB68D2
:106040001B68C3F39D035B001846FCF721FA024668
:10605000FB689A60FB6898687B6899687B681B6836
:10606000C3F39D035B001A46B4F018FEFB681846A4
:106070001037BD4680BD00BF7C710C10EC710C1058
:106080005C710C1080B582B000AF786039603B68FD
:106090005B6819467868FFF75BFF3B681B78C3F3C2
:1060A0000003D9B27A68137861F3000313703B6878
:1060B0005A687B685A607B6898683B6899683B6857
:1060C0005B685B001A46B4F0E9FD00BF0837BD46C7
:1060D00080BD80B584B000AF786039603B68002B2C
:1060E00008D17A6813786FF3000313707B6800227D
:1060F0005A602CE002217868FFF72AFF3B68002BEA
:1061000008DA7A68137843F0010313703B685B4246
:10611000FB6006E07A6813786FF3000313703B6846
:10612000FB607B6800225A600EE07B689A687B689F
:106130005B68581C796848605B001344FA6892B247
:106140001A80FB681B0CFB60FB68002BEDD110373D
:10615000BD4680BDB0B586B000AFF860C7E900238A
:106160000421F868FFF7F4FE97F82830002B11D0CF
:10617000D7E90023002B0DDAFA68137843F0010306
:106180001370D7E900230021544261EB0305C7E9EE
:10619000044508E0FA6813786FF300031370D7E939
:1061A0000023C7E90423FB6800225A6016E0FB685D
:1061B0009A68FB685B68581CF96848605B00134488
:1061C0003A8A1A80D7E904014FF000024FF0000329
:1061D000020C42EA01420B0CC7E90423D7E904236D
:1061E0001343E4D100BF00BF1837BD46B0BD80B532
:1061F0008AB000AF786039603B68FB60FB7BC3F31B
:10620000C013D9B27A68137861F300031370FB8965
:1062100003F4FF439BB2002B04D100217868FFF701
:1062200058FF8EE0FB8903F4FF439BB2B3F5FF4FA9
:1062300004D100217868FFF74CFF82E0FB89C3F3AB
:10624000C713DBB27F3BBB61BB69002B04DA0021C3
:106250007868FFF73EFF74E0BB69002B04D1012191
:106260007868FFF736FF6CE0BB691033002B00DA6B
:106270000F331B117B61BB695A4203F00F0302F01D
:106280000F0258BF53423B61FB68C3F3160343F44C
:106290000003FB61BB69162B0BDC00233B62002370
:1062A0007B62BB69C3F11703FA6922FA03F3FB614E
:1062B0000BE03B69173B03F00F033B62BB69173BE5
:1062C000002B00DA0F331B117B627B69194678685B
:1062D000FFF73EFE7A697B685A607B6A002B07D025
:1062E0007B6898687B6A5B001A460021B4F0FEFC6C
:1062F0003B6A002B21D0FA693B6A02FA03F07B6803
:106300009A687B6A591C79625B00134482B21A80D6
:106310003B6AC3F11003FA6922FA03F3FB610CE054
:106320007B689A687B6A591C79625B001344FA693E
:1063300092B21A80FB691B0CFB617A6A7B699A42F4
:10634000EED100BF2837BD4680BD000080B588B0C3
:1063500000AFF860B9607A60FB70BB6A242B06D985
:10636000334B344A40F232313348B4F02BF9BB6836
:10637000FB61BA687B6813447B617B68DB001B09A7
:1063800001331946F868FFF7E3FDFB78002B05D0D1
:10639000FA68137843F00103137004E0FA68137885
:1063A0006FF300031370FB6800225A6033E0FB694F
:1063B0001B78BB61BB692F2B06D9BB69392B03D86E
:1063C000BB69303BBB6112E0BB69402B06D9BB699E
:1063D0005A2B03D8BB69373BBB6108E0BB69602B14
:1063E0001FD9BB697A2B1CD8BB69573BBB61BA6903
:1063F000BB6A9A4214D2FB689868FB685968BB6A0A
:106400009AB2BB699BB2FFF7D2FA0246FB685A60A8
:10641000FB690133FB61FA697B699A42C7D300E0EB
:1064200000BFFA69BB68D31A18462037BD4680BD45
:106430008C710C10F8710C105C710C1080B588B068
:1064400000AFF8607A603B600B46FB720123FB6192
:10645000FB7A002B07D07B68013B3A6813443B6012
:106460004FF0FF33FB617B680233DB00013B1B090C
:106470001946F868FFF76CFD00237B8300237B61DE
:10648000FA6813786FF300031370FB6800225A60F8
:106490002BE03B681B781A467B6902FA03F31AB2B9
:1064A000B7F91A3013431BB27B837B6908337B61D6
:1064B000FB693A6813443B607B68013B7B607B6807
:1064C000002B02D07B690F2BE3DDFB689A68FB6829
:1064D0005B68581CF96848605B0013447A8B1A802B
:1064E00000237B837B69103B7B617B68002BE6D1BB
:1064F000FB689868FB689A68FB685B685B001344FC
:106500001946FEF78DFE0246FB685A6000BF203731
:10651000BD4680BD80B584B000AF786039603B680F
:106520001B78C3F30003DBB21A467B681B78C3F306
:106530000003DBB2D31AFB60FB68002B01D0FB68C1
:1065400015E07B6898687B6859683B689A683B6887
:106550005B68FEF784FEF8607B681B7803F001033C
:10656000DBB2002B02D0FB685B42FB60FB68184685
:106570001037BD4680BD80B582B000AF786039600D
:106580007A683B689A4203D039687868FFF77AFDE9
:106590007A6813786FF30003137000BF0837BD46A5
:1065A00080BD80B582B000AF786039607A683B68A2
:1065B0009A4203D039687868FFF764FD7B685B68AE
:1065C000002B0FD07B681B78C3F30003DBB2C3F151
:1065D0000103DBB203F00103D9B27A68137861F3E7
:1065E0000003137000BF0837BD4680BD90B587B06B
:1065F00002AF786039607A683B689A4203D03968A4
:106600007868FFF73FFD7B685B68002B10D10121A4
:106610007868FFF79DFC7B689B6801221A807B6885
:1066200001225A607A68137843F0010313703AE04C
:106630007B681B7803F00103DBB2002B16D07A686D
:1066400013786FF3000313700123FB817B68986854
:106650007B6899687B685A6807F10E0301240094EF
:10666000FEF769FF02467B685A601CE07B685B6846
:10667000013319467868FFF76BFC0123BB817B6807
:1066800098687B6899687B685A6807F10C03012455
:106690000094FEF7F4FE02467B685A607A6813782D
:1066A00043F00103137000BF1437BD4690BD80B5A1
:1066B00084B000AFF860B9607A60BB685B68002B9B
:1066C00002D07B68002B04D1B968F868FFF7DAFCC8
:1066D00020E0BB685A687B680F331B0913441946D6
:1066E000F868FFF735FCFB689868BB689968BB6879
:1066F0005A687B68FEF7F7FD0246FB685A60BB6884
:106700001B78C3F30003D9B2FA68137861F300036E
:10671000137000BF00BF1037BD4680BD90B58BB071
:1067200002AFF860B9607A60BB685B68002B02D08A
:106730007B68002B04D1B968F868FFF7A3FC79E007
:10674000BB685B681946F868FFF702FCFB6898684D
:10675000BB689968BB685A687B68FEF73FFE0246D3
:10676000FB685A60BB681B78C3F30003D9B2FA68B0
:10677000137861F300031370FB681B7803F00103C7
:10678000DBB2002B56D07B681B09BB617B6803F032
:106790000F037B6100237B820023FB610DE0BB685C
:1067A0009A68FB695B0013441B88002B02D001230D
:1067B0007B820BE0FB690133FB61BB685B68FA69B4
:1067C0009A4203D2FA69BB699A42E8D3BB685B6814
:1067D000BA699A4210D2BB689A68BB695B001344DD
:1067E0001B88194601227B6902FA03F3013B0B4027
:1067F000002B01D001237B827B8A002B1AD0FB68FF
:106800005B68002B07D1FB689B6801221A80FB683C
:1068100001225A600EE0FB689868FB689968FB6883
:106820005A6807F1120301240094FEF728FE02467D
:10683000FB685A6000BF2437BD4690BD90B589B053
:1068400002AFF860B9607A60BB689868BB68596845
:106850007B689A687B685B68FEF701FD0346002B46
:1068600005DABB687B617B68BB607B697B60BB686A
:106870001B78C3F30003DAB27B681B78C3F3000311
:10688000DBB29A4218D1BB685B6801331946F868DD
:10689000FFF75EFBFB689868BB689968BB685A683D
:1068A0007B689C687B685B6800932346FEF7E7FD86
:1068B0000246FB685A6016E0BB685B681946F868D8
:1068C000FFF746FBFB689868BB689968BB685A6825
:1068D0007B689C687B685B6800932346FEF72BFE11
:1068E0000246FB685A60BB681B78C3F30003DBB247
:1068F0005AB2FB685B68002B14BF01230023DBB294
:106900005BB213405BB203F00103D9B2FA681378AB
:1069100061F30003137000BF1C37BD4690BD90B5F6
:1069200089B002AFF860B9607A600023FB75BB687C
:106930009868BB6859687B689A687B685B68FEF7F3
:106940008EFC0346002B07DABB683B617B68BB60AB
:106950003B697B600123FB75BB681B78C3F30003B5
:10696000DAB27B681B78C3F30003DBB29A4218D01B
:10697000BB685B6801331946F868FFF7E9FAFB6802
:106980009868BB689968BB685A687B689C687B6834
:106990005B6800932346FEF772FD0246FB685A606F
:1069A00016E0BB685B681946F868FFF7D1FAFB6828
:1069B0009868BB689968BB685A687B689C687B6804
:1069C0005B6800932346FEF7B6FD0246FB685A60FB
:1069D000FB685B68002B05D1FA6813786FF300033E
:1069E00013701DE0FB7D002B10D0BB681B78C3F338
:1069F0000003DBB2C3F10103DBB203F00103D9B240
:106A0000FA68137861F30003137009E0BB681B7820
:106A1000C3F30003D9B2FA68137861F3000313706B
:106A200000BF1C37BD4690BDF0B58BB004AFF86019
:106A3000B9607A60BB685A687B685B689A4205D225
:106A4000BB687B617B68BB607B697B60BB681B78D4
:106A500003F00103DBB2002B1FD17B681B7803F02E
:106A60000103DBB2002B18D1BB685B681946F868DC
:106A7000FFF76EFAFB689868BB6899687B689A684C
:106A80007B685B68FEF7A9FD0246FB685A60FA68FE
:106A900013786FF30003137058E0BB685B68013331
:106AA0001946F868FFF754FAFB689868BB689C6859
:106AB000BB685D687B689E687B685B68BA681278B3
:106AC000C2F30002D1B27A681278C2F30002D2B2E5
:106AD00091420CBF01220022D2B21146BA6812784C
:106AE00002F00102D2B2002A14BF01220022D2B267
:106AF0003A607A68127802F00102D2B2002A14BF1A
:106B000001220022D2B203923A68029201910093CC
:106B100033462A462146FEF78AFD0246FB685A6044
:106B2000BB681B78C3F30003DBB21A467B681B7893
:106B3000C3F30003DBB21340DBB203F00103D9B2AD
:106B4000FA68137861F30003137000BF00BF1C37AD
:106B5000BD46F0BDF0B58BB004AFF860B9607A60A7
:106B6000BB685A687B685B689A4205D2BB687B61E8
:106B70007B68BB607B697B60BB681B7803F00103AB
:106B8000DBB2002B23D17B681B7803F00103DBB25F
:106B9000002B1CD1BB685B681946F868FFF7D8F971
:106BA000FB689868BB689968BB685A687B689C6892
:106BB0007B685B6800932346FEF7ACFD0246FB68EA
:106BC0005A60FA6813786FF30003137035E0BB68FE
:106BD0005B6801331946F868FFF7BAF9FB689868F3
:106BE000BB689968BB685C687B689D687B685B680C
:106BF000BA68127802F00102D2B2002A14BF012250
:106C00000022D2B216467A68127802F00102D2B29D
:106C1000002A14BF01220022D2B2029201960093F0
:106C20002B462246FEF7B6FD0246FB685A60FA681C
:106C3000137843F00103137000BF00BF1C37BD463B
:106C4000F0BDF0B58BB004AFF860B9607A60BB6896
:106C50005A687B685B689A4205D2BB687B617B6837
:106C6000BB607B697B60BB681B78C3F30003DAB24F
:106C70007B681B78C3F30003DBB29A423BD1BB684D
:106C80005B681946F868FFF763F9BB681B7803F087
:106C90000103DBB2002B11D1FB689868BB689968CF
:106CA000BB685A687B689C687B685B680093234676
:106CB000FEF7E4FD0246FB685A6016E0FB68986840
:106CC000BB689968BB685A687B689C687B685B682E
:106CD0000025039500250295002501950093234684
:106CE000FEF70BFE0246FB685A60FA6813786FF3F2
:106CF0000003137036E0BB685B6801331946F8681F
:106D0000FFF726F9FB689868BB689968BB685C6800
:106D10007B689D687B685B68BA68127802F0010244
:106D2000D2B2002A0CBF01220022D2B216467A68E3
:106D3000127802F00102D2B2002A0CBF0122002216
:106D4000D2B2039202960122019200932B46224670
:106D5000FEF7D3FD0246FB685A60FA68137843F0E9
:106D60000103137000BF1C37BD46F0BD90B589B05C
:106D700002AFF860B9607A60BB685B68002B03D033
:106D80007B685B68002B04D10021F868FFF7A1F94C
:106D90005BE000237B61BA68FB689A420CD1B8685B
:106DA000FFF71CF978617B69BB607A68FB689A42DF
:106DB0000CD1BB687B6009E07A68FB689A4205D118
:106DC0007868FFF70BF978617B697B60BB685A686C
:106DD0007B685B6813441946F868FFF7B9F8FB68ED
:106DE0009868FB681B68C3F39D035B001A4600218B
:106DF000B3F07CFFFB689868BB689968BB685A6809
:106E00007B689C687B685B6800932346FEF70BFEFB
:106E10000246FB685A60BB681B78C3F30003DAB212
:106E20007B681B78C3F30003DBB29A4205D1FA6892
:106E300013786FF30003137004E0FA68137843F0DB
:106E4000010313707869FFF768F81C37BD4690BDE1
:106E500080B586B000AFF860B9607A60BB685B68E7
:106E6000002B06D07B681B7803F00103DBB2002BFC
:106E700004D00021F868FFF72CF942E07B685B68DA
:106E8000002B04D10121F868FFF723F939E0B86835
:106E9000FFF7A4F878617868FFF7A0F8386101215E
:106EA000F868FFF716F920E03B699B681B8803F040
:106EB0000103002B04D07A69F968F868FFF756FFE0
:106EC0003B6998683B6999683B695A680123FEF7FA
:106ED00085FA02463B695A603B695B68002B09D022
:106EE0007A6979697869FFF741FF3B695B68002B34
:106EF000DAD100E000BF7869FFF70FF83869FFF7D3
:106F00000CF81837BD4680BD80B58AB000AFF86078
:106F1000B9607A603B60BB685B68002B0FD07B6810
:106F20001B7803F00103DBB2002B08D13B685B68E0
:106F3000012B09D13B689B681B88012B04D10021E0
:106F4000F868FFF7C6F857E00121F868FFF7C1F8C5
:106F50007B685B68002B4ED0B868FFF73FF878621B
:106F60007868FFF73BF8386207F114031846FEF71C
:106F700061FF2EE03B6A9B681B8803F00103002B36
:106F80000BD07A6AF968F868FFF7F0FE07F1140091
:106F90003B68FA68F96800F033F83B6A98683B6A26
:106FA00099683B6A5A680123FEF718FA02463B6A61
:106FB0005A603B6A5B68002B10D07A6A796A786AFB
:106FC000FFF7D4FE07F114003B687A6A796A00F093
:106FD00017F83B6A5B68002BCCD100E000BF07F1DB
:106FE00014031846FEF77CFF786AFEF796FF386AAE
:106FF000FEF793FF00E000BF2837BD4680BD0000CC
:10700000B0B58AB002AFF860B9607A603B603868AA
:10701000FEF7F5F8034683F00103DBB2002B06D13F
:10702000464B474A40F2CC514648B3F0CBFA7B6816
:107030005B6801331946F868FEF78AFFFB689868B9
:107040007B685B6801335B001A460021B3F04EFE9B
:10705000FA6813786FF300031370FB6800225A601C
:107060007B685B6801331946B868FEF771FF796881
:10707000B868FFF707F8BB689868BB68191D3B68DC
:107080009C683B685D68FB689B68FA680432019203
:1070900000932B462246FEF71DFDBB681B78C3F309
:1070A0000003DBB25AB2BB685B68002B14BF01233C
:1070B0000023DBB25BB213405BB203F00103D9B231
:1070C000BA68137861F3000313707B681B78C3F30D
:1070D0000003DAB23B681B78C3F30003DBB29A42C9
:1070E00027D0FB685B68002B14BF01230023D9B2B3
:1070F000FA68137861F300031370B868FEF77FF83D
:10710000034683F00103DBB2002B12D007F1140316
:107110004FF0FF311846FEF7ACFE07F114031A4694
:10712000F968F868FFF78AFB3A68B968B868FFF74A
:1071300085FB00BF2037BD46B0BD00BF98710C1065
:107140000C720C105C710C1080B485B000AF7860CC
:107150000023FB607B689A687B685B685B00134474
:10716000BB6008E0BB68023BBB60FB681B04BA68FD
:1071700012881343FB607B689B68BA689A42F1D817
:107180007B681B7803F00103DBB2002B02D0FB68A5
:107190005B42FB60FB6818461437BD465DF8047B14
:1071A000704780B485B000AF786039600023FB6021
:1071B0007B689A687B685B685B001344BB600EE089
:1071C000FB68B3F5004F01D300231BE0BB68023B13
:1071D000BB60FB681B04BA6812881343FB607B68C2
:1071E0009B68BA689A42EBD87B681B7803F001036E
:1071F000DBB2002B02D0FB685B42FB60FA683B68A5
:107200001A60012318461437BD465DF8047B7047A9
:1072100080B58EB000AFF8607B600B46FB72134602
:10722000BB723B6C7B63FB7A002B03D07A6B7B6871
:1072300013447B63FB689B683B630023FB62002372
:10724000BB6201237B627B683B620123FB77FB68A7
:107250005B68BB6154E0FB6A1033FB62BB6A1A04D3
:107260003B6B991C39631B881343BB6242E0BB6ACA
:10727000FB82FB681B7803F00103DBB2002B0CD010
:10728000FB8ADB439BB2DBB29AB27B6A9BB21344AC
:10729000FB82FB8A1B0A9BB27B623B6A002B0FD1ED
:1072A000FB7F002B05D0FB8ADBB2002B01D1012331
:1072B00000E00023FB77FB7F03F00103FB7713E083
:1072C000FB7A002B07D07B6B013B7B63FB8ADAB236
:1072D0007B6B1A7005E07B6B5A1C7A63FA8AD2B218
:1072E0001A703B6A013B3B62FB6A083BFB62BB6A6C
:1072F0001B0ABB62FB6A072BB9DCBB69013BBB61A4
:10730000BB69002BA7D1BB7A002B31D03B6A002B85
:107310002ED17B68002B2BD0FB7A002B02D03B6C4C
:107320001B7804E07B68013B3A6C13441B787B7547
:10733000FB7F002B15D097F91530DB43DBB2DB095F
:10734000DAB2FB681B7803F00103DBB2002B14BF39
:1073500001230023DBB25340DBB2002B01D0012319
:1073600000E00023FB77FB7F03F00103FB7713E0D2
:10737000FB7A002B01D03B6C00E07B6BFA68127843
:1073800002F00102D2B2002A01D0FF2100E0002168
:107390003A6A1846B3F0AAFCFB7F18463837BD4658
:1073A00080BD000080B485B000AF78604FF000036E
:1073B000FB607B689A687B685B685B001344BB601A
:1073C00012E0BB68023BBB60D7ED037A9FED137AF6
:1073D00027EE877ABB681B8807EE903AF8EEE77ACB
:1073E00077EE277AC7ED037A7B689B68BA689A4282
:1073F000E7D87B681B7803F00103DBB2002B05D0D4
:10740000D7ED037AF1EE677AC7ED037AFB68184689
:107410001437BD465DF8047B704700BF000080470D
:1074200080B590B000AFF860B9607A60FB70FB6C1B
:10743000002B06D1854B864A40F28A618548B3F01D
:10744000C1F8BB68012B02D9BB68202B06D9824B3F
:107450007F4A40F28B617F48B3F0B4F8FB685B6809
:10746000FB61BB680A2B01D1032300E00423BB614D
:10747000FB6CFB63FB69002B1BD17B68002B0CD0E2
:1074800007E07A68531C7B60FB6B591CF963127828
:107490001A707B681B78002BF3D1FB6B5A1CFA63C4
:1074A00030221A70FB6B00221A70FA6BFB6CD31A35
:1074B000C7E0FB695B001846FAF7EAFF7861FB68F2
:1074C0009968FB695B001A467869B3F0E7FBFB6CCF
:1074D000BB63FB695B007A6913443B630023FB6277
:1074E00015E0FB6A1B043A6B12881343FB62FA6ACD
:1074F000BB68B2FBF3F39AB23B6B1A80FB6ABA68C3
:10750000B3FBF2F2B96801FB02F29B1AFB623B6B20
:10751000023B3B633A6B7B699A42E2D2FB6A3033AF
:10752000FB62FB6A392B04D9FA78FB6A13443A3BB5
:10753000FB62FB6B5A1CFA63FA6AD2B21A7001231F
:1075400087F837307B693B630AE03B6B1B88002B75
:1075500003D0002387F8373009E03B6B02333B63ED
:10756000FB695B007A6913443A6B9A42EDD397F852
:10757000373083F00103DBB2002B11D097F848308D
:10758000002B0DD0FA6BBB6BD31ABA699A4207D1A4
:10759000FB6B5A1CFA6397F848201A70FB6BBB63AD
:1075A00097F8373083F00103DBB2002B91D1FB69F0
:1075B0005B0019467869FBF793F87B68002B14D0C1
:1075C0007868B4F06CFE02467B681344BB6208E046
:1075D000BB6A013BBB62FB6B5A1CFA63BA6A127846
:1075E0001A70BA6A7B689A42F2D8FB681B7803F07B
:1075F0000103DBB2002B04D0FB6B5A1CFA632D2273
:107600001A70FB6C7B62FB6B013B3B620FE07B6A99
:107610001B78FB743B6A1A787B6A1A703B6AFA7CA7
:107620001A707B6A01337B623B6A013B3B627A6A78
:107630003B6A9A42EBD3FB6B00221A70FA6BFB6C2D
:10764000D31A18464037BD4680BD00BFAC710C1040
:107650001C720C105C710C10B8710C1080B485B0E9
:1076600000AF78607B68FB60FB689A68FB68DB684A
:107670009A4206D2FB689B68591CFA6891601B7895
:1076800001E04FF0FF3318461437BD465DF8047B28
:10769000704780B584B000AF78607B68FB60FB68A2
:1076A0001B68002B0CD0FB681B68B3F1FF3F07D0B1
:1076B000FB685A68FB681B6819461046FBF710F810
:1076C0001021F868FBF70CF800BF1037BD4680BDED
:1076D00080B586B000AFF860B9607A603B6010207A
:1076E000FAF7D6FE78617B693A681A607B69BA68F6
:1076F0005A607B69BA689A60BA687B681A447B6989
:10770000DA60FB687A691A60FB68044A5A60FB68B1
:10771000034A9A6000BF1837BD4680BD5D760010F1
:107720009376001080B483B000AF78607B6800224D
:107730005A6000BF0C37BD465DF8047B704780B4CB
:1077400083B000AF78607B685B6818460C37BD4635
:107750005DF8047B704780B483B000AF78607B68CD
:107760001B69B3F1FF3F0CBF01230023DBB21846B6
:107770000C37BD465DF8047B704780B483B000AF22
:1077800078607B681B690A2B0CBF01230023DBB2E6
:1077900018460C37BD465DF8047B704780B483B053
:1077A00000AF78600B46FB707B681A69FB789A42E1
:1077B0000CBF01230023DBB218460C37BD465DF831
:1077C000047B704780B483B000AF78600B46FB70D9
:1077D0001346BB707B681A69FB789A4204D07B68B9
:1077E0001A69BB789A4201D1012300E0002303F01B
:1077F0000103DBB218460C37BD465DF8047B7047C9
:1078000080B483B000AF7860084611461A4603463C
:10781000FB700B46BB7013467B707B681A69FB7864
:107820009A4209D07B681A69BB789A4204D07B6877
:107830001A697B789A4201D1012300E0002303F00A
:107840000103DBB218460C37BD465DF8047B704778
:1078500080B483B000AF7860084611461A460346EC
:10786000FB700B46BB7013467B707B681A69FB7814
:107870009A420ED07B681A69BB789A4209D07B681D
:107880001A697B789A4204D07B681A693B7C9A42D9
:1078900001D1012300E0002303F00103DBB218460D
:1078A0000C37BD465DF8047B704780B483B000AFF1
:1078B00078600B46FB707B685A69FB789A420CBF74
:1078C00001230023DBB218460C37BD465DF8047B6C
:1078D000704780B483B000AF78600B46FB701346EE
:1078E000BB707B685A69FB789A4204D07B685A69FE
:1078F000BB789A4201D1012300E0002303F0010389
:10790000DBB218460C37BD465DF8047B704780B487
:1079100083B000AF78600B46FB701346BB707B688A
:107920009A69FB789A4204D07B689A69BB789A423C
:1079300001D1012300E0002303F00103DBB218466C
:107940000C37BD465DF8047B704780B483B000AF50
:1079500078600B46FB701346BB707B681A69FB7836
:107960009A4206D17B685A69BB789A4201D10123B9
:1079700000E0002303F00103DBB218460C37BD46DC
:107980005DF8047B704780B582B000AF78607B689B
:107990001B691846FDF7D8FA034618460837BD4656
:1079A00080BD80B582B000AF78607B681B691846E7
:1079B000FDF7E8FA034618460837BD4680BD80B596
:1079C00082B000AF78607B681B691846FDF7F8FA53
:1079D000034618460837BD4680BD80B582B000AF6B
:1079E00078607B685B691846FDF7EAFA034618463B
:1079F0000837BD4680BD80B485B000AF78607B6835
:107A00005B6943F02003FB60FB68622B05D0FB68D9
:107A10006F2B02D0FB68782B01D1012300E00023FB
:107A200003F00103DBB218461437BD465DF8047B52
:107A3000704780B483B000AF78607B685B692F2BA0
:107A400005D97B685B69372B01D8012300E000234F
:107A500003F00103DBB218460C37BD465DF8047B2A
:107A6000704780B584B002AF786022222721786801
:107A7000FFF7A8FE0346002B42D166230093622342
:107A8000752272217868FFF7E3FE0346002B07D0CA
:107A9000222227217868FFF71CFF0346002B2FD1F5
:107AA000662272217868FFF750FF0346002B07D14A
:107AB000722266217868FFF748FF0346002B07D043
:107AC000222227217868FFF722FF0346002B17D1D7
:107AD000622272217868FFF738FF0346002B07D136
:107AE000722262217868FFF730FF0346002B09D02D
:107AF000222227217868FFF70AFF0346002B01D0D6
:107B0000012300E0002303F00103DBB2184608372D
:107B1000BD4680BD80B582B000AF78607868FFF761
:107B200040FF0346002B07D17B681B695F2B03D006
:107B30007B681B697F2B01D9012300E0002303F040
:107B40000103DBB218460837BD4680BD80B582B060
:107B500000AF78607868FFF7DDFF0346002B05D1A2
:107B60007868FFF72CFF0346002B01D0012300E0CB
:107B7000002303F00103DBB218460837BD4680BD81
:107B800080B582B000AF78607B681B690A2B08D192
:107B90007B689B6A5A1C7B689A627B680122DA6266
:107BA00011E07B681B69092B08D17B68DB6A07330E
:107BB00023F007035A1C7B68DA6204E07B68DB6A07
:107BC0005A1C7B68DA627B685A697B681A617B6839
:107BD0009A697B685A617B681B6F002B2ED07B688B
:107BE0001A6F7B685B6E9A420CD27B689A6E7B68D8
:107BF0001B6F581C7968086713441B781A467B680A
:107C00009A6102E07B6800229A617B681B69002B05
:107C10001DD17B68DA697B681A617B681A6A7B68A8
:107C20005A617B685A6A7B689A617B686033184640
:107C3000FFF778FD7B6800221A6708E07B689B6885
:107C40007A6852681046984702467B689A617B685A
:107C50005B690D2B0FD17B680A225A617B689B6997
:107C60000A2B08D17B689B687A685268104698474F
:107C700002467B689A617B689B69B3F1FF3F0BD139
:107C80007B685B69B3F1FF3F06D07B685B690A2BB9
:107C900002D07B680A229A6100BF0837BD4680BDCA
:107CA00080B582B000AF786039607B68DA6B7B6842
:107CB0009B6B9A4214D37B68186C7B689B6B590052
:107CC0007B689B6B08335B001A46FAF78DFC024613
:107CD0007B681A647B689B6B03F108027B689A637C
:107CE0007B681A6C7B68DB6B581C7968C8635B0027
:107CF00013443A6892B21A8000BF0837BD4680BD6F
:107D000080B483B000AF78607B681A6C7B68DB6BF3
:107D100003F10043013B5B0013441B8818460C37FA
:107D2000BD465DF8047B704780B483B000AF7860D7
:107D30007B68DB6B5A1E7B68DA6300BF0C37BD467D
